{
  "contractName": "RefillContract",
  "abi": [
    {
      "anonymous": false,
      "inputs": [
        {
          "indexed": false,
          "internalType": "uint256",
          "name": "id",
          "type": "uint256"
        },
        {
          "indexed": false,
          "internalType": "string",
          "name": "name",
          "type": "string"
        },
        {
          "indexed": false,
          "internalType": "uint256",
          "name": "price",
          "type": "uint256"
        },
        {
          "indexed": false,
          "internalType": "uint256",
          "name": "quantity",
          "type": "uint256"
        }
      ],
      "name": "ProductAdded",
      "type": "event"
    },
    {
      "anonymous": false,
      "inputs": [
        {
          "indexed": false,
          "internalType": "uint256",
          "name": "productId",
          "type": "uint256"
        },
        {
          "indexed": false,
          "internalType": "uint256",
          "name": "quantity",
          "type": "uint256"
        }
      ],
      "name": "RefillOrderPlaced",
      "type": "event"
    },
    {
      "inputs": [],
      "name": "productCount",
      "outputs": [
        {
          "internalType": "uint256",
          "name": "",
          "type": "uint256"
        }
      ],
      "stateMutability": "view",
      "type": "function",
      "constant": true
    },
    {
      "inputs": [
        {
          "internalType": "uint256",
          "name": "",
          "type": "uint256"
        }
      ],
      "name": "products",
      "outputs": [
        {
          "internalType": "uint256",
          "name": "id",
          "type": "uint256"
        },
        {
          "internalType": "string",
          "name": "name",
          "type": "string"
        },
        {
          "internalType": "uint256",
          "name": "price",
          "type": "uint256"
        },
        {
          "internalType": "uint256",
          "name": "quantity",
          "type": "uint256"
        }
      ],
      "stateMutability": "view",
      "type": "function",
      "constant": true
    },
    {
      "inputs": [
        {
          "internalType": "string",
          "name": "_name",
          "type": "string"
        },
        {
          "internalType": "uint256",
          "name": "_price",
          "type": "uint256"
        },
        {
          "internalType": "uint256",
          "name": "_quantity",
          "type": "uint256"
        }
      ],
      "name": "addProduct",
      "outputs": [],
      "stateMutability": "nonpayable",
      "type": "function"
    },
    {
      "inputs": [
        {
          "internalType": "uint256",
          "name": "_productId",
          "type": "uint256"
        },
        {
          "internalType": "uint256",
          "name": "_quantity",
          "type": "uint256"
        }
      ],
      "name": "refillOrder",
      "outputs": [],
      "stateMutability": "nonpayable",
      "type": "function"
    }
  ],
  "bytecode": "0x608060405234801561001057600080fd5b50610b95806100206000396000f3fe608060405234801561001057600080fd5b506004361061004c5760003560e01c8063125b0b34146100515780637acc0b201461006d578063df305d59146100a0578063e0f6ef87146100bc575b600080fd5b61006b60048036038101906100669190610504565b6100da565b005b61008760048036038101906100829190610573565b6101a4565b604051610097949392919061062e565b60405180910390f35b6100ba60048036038101906100b5919061067a565b61025c565b005b6100c461036e565b6040516100d191906106ba565b60405180910390f35b600160008154809291906100ed90610704565b9190505550604051806080016040528060015481526020018481526020018381526020018281525060008060015481526020019081526020016000206000820151816000015560208201518160010190816101489190610958565b5060408201518160020155606082015181600301559050507f0107e99fb43ba873db8a5ce7c34a12cd44cd3041167cff32040ddb6aca455ae6600154848484604051610197949392919061062e565b60405180910390a1505050565b60006020528060005260406000206000915090508060000154908060010180546101cd9061077b565b80601f01602080910402602001604051908101604052809291908181526020018280546101f99061077b565b80156102465780601f1061021b57610100808354040283529160200191610246565b820191906000526020600020905b81548152906001019060200180831161022957829003601f168201915b5050505050908060020154908060030154905084565b60008211801561026e57506001548211155b6102ad576040517f08c379a00000000000000000000000000000000000000000000000000000000081526004016102a490610a76565b60405180910390fd5b80600080848152602001908152602001600020600301541015610305576040517f08c379a00000000000000000000000000000000000000000000000000000000081526004016102fc90610ae2565b60405180910390fd5b80600080848152602001908152602001600020600301600082825461032a9190610b02565b925050819055507fae0bdaaa7c402a6275be8bb1eecf0bdcc1cb1078e4dabd1b41af55d1eb882cdc8282604051610362929190610b36565b60405180910390a15050565b60015481565b6000604051905090565b600080fd5b600080fd5b600080fd5b600080fd5b6000601f19601f8301169050919050565b7f4e487b7100000000000000000000000000000000000000000000000000000000600052604160045260246000fd5b6103db82610392565b810181811067ffffffffffffffff821117156103fa576103f96103a3565b5b80604052505050565b600061040d610374565b905061041982826103d2565b919050565b600067ffffffffffffffff821115610439576104386103a3565b5b61044282610392565b9050602081019050919050565b82818337600083830152505050565b600061047161046c8461041e565b610403565b90508281526020810184848401111561048d5761048c61038d565b5b61049884828561044f565b509392505050565b600082601f8301126104b5576104b4610388565b5b81356104c584826020860161045e565b91505092915050565b6000819050919050565b6104e1816104ce565b81146104ec57600080fd5b50565b6000813590506104fe816104d8565b92915050565b60008060006060848603121561051d5761051c61037e565b5b600084013567ffffffffffffffff81111561053b5761053a610383565b5b610547868287016104a0565b9350506020610558868287016104ef565b9250506040610569868287016104ef565b9150509250925092565b6000602082840312156105895761058861037e565b5b6000610597848285016104ef565b91505092915050565b6105a9816104ce565b82525050565b600081519050919050565b600082825260208201905092915050565b60005b838110156105e95780820151818401526020810190506105ce565b60008484015250505050565b6000610600826105af565b61060a81856105ba565b935061061a8185602086016105cb565b61062381610392565b840191505092915050565b600060808201905061064360008301876105a0565b818103602083015261065581866105f5565b905061066460408301856105a0565b61067160608301846105a0565b95945050505050565b600080604083850312156106915761069061037e565b5b600061069f858286016104ef565b92505060206106b0858286016104ef565b9150509250929050565b60006020820190506106cf60008301846105a0565b92915050565b7f4e487b7100000000000000000000000000000000000000000000000000000000600052601160045260246000fd5b600061070f826104ce565b91507fffffffffffffffffffffffffffffffffffffffffffffffffffffffffffffffff8203610741576107406106d5565b5b600182019050919050565b7f4e487b7100000000000000000000000000000000000000000000000000000000600052602260045260246000fd5b6000600282049050600182168061079357607f821691505b6020821081036107a6576107a561074c565b5b50919050565b60008190508160005260206000209050919050565b60006020601f8301049050919050565b600082821b905092915050565b60006008830261080e7fffffffffffffffffffffffffffffffffffffffffffffffffffffffffffffffff826107d1565b61081886836107d1565b95508019841693508086168417925050509392505050565b6000819050919050565b600061085561085061084b846104ce565b610830565b6104ce565b9050919050565b6000819050919050565b61086f8361083a565b61088361087b8261085c565b8484546107de565b825550505050565b600090565b61089861088b565b6108a3818484610866565b505050565b5b818110156108c7576108bc600082610890565b6001810190506108a9565b5050565b601f82111561090c576108dd816107ac565b6108e6846107c1565b810160208510156108f5578190505b610909610901856107c1565b8301826108a8565b50505b505050565b600082821c905092915050565b600061092f60001984600802610911565b1980831691505092915050565b6000610948838361091e565b9150826002028217905092915050565b610961826105af565b67ffffffffffffffff81111561097a576109796103a3565b5b610984825461077b565b61098f8282856108cb565b600060209050601f8311600181146109c257600084156109b0578287015190505b6109ba858261093c565b865550610a22565b601f1984166109d0866107ac565b60005b828110156109f8578489015182556001820191506020850194506020810190506109d3565b86831015610a155784890151610a11601f89168261091e565b8355505b6001600288020188555050505b505050505050565b7f496e76616c69642070726f647563742069640000000000000000000000000000600082015250565b6000610a606012836105ba565b9150610a6b82610a2a565b602082019050919050565b60006020820190508181036000830152610a8f81610a53565b9050919050565b7f4e6f7420656e6f756768207175616e7469747920617661696c61626c65000000600082015250565b6000610acc601d836105ba565b9150610ad782610a96565b602082019050919050565b60006020820190508181036000830152610afb81610abf565b9050919050565b6000610b0d826104ce565b9150610b18836104ce565b9250828203905081811115610b3057610b2f6106d5565b5b92915050565b6000604082019050610b4b60008301856105a0565b610b5860208301846105a0565b939250505056fea2646970667358221220a0df0209f7bd3cb472107ef0e0d78fd455f44c2b2edb73305fbd0cc0926e5bc464736f6c63430008130033",
  "immutableReferences": {},
  "source": "// SPDX-License-Identifier: MIT\npragma solidity ^0.8.0;\n\ncontract RefillContract {\n  struct Product {\n    uint id;\n    string name;\n    uint price;\n    uint quantity;\n  }\n  \n  mapping(uint => Product) public products;\n  uint public productCount;\n  \n  event ProductAdded(uint id, string name, uint price, uint quantity);\n  event RefillOrderPlaced(uint productId, uint quantity);\n  \n  function addProduct(string memory _name, uint _price, uint _quantity) public {\n    productCount++;\n    products[productCount] = Product(productCount, _name, _price, _quantity);\n    emit ProductAdded(productCount, _name, _price, _quantity);\n  }\n  \n  function refillOrder(uint _productId, uint _quantity) public {\n    require(_productId > 0 && _productId <= productCount, \"Invalid product id\");\n    require(products[_productId].quantity >= _quantity, \"Not enough quantity available\");\n    products[_productId].quantity -= _quantity;\n    emit RefillOrderPlaced(_productId, _quantity);\n  }\n}\n\n",
  "sourcePath": "C:\\Users\\impbp\\Desktop\\ecommrefill\\src\\contracts\\RefillContract.sol",
  "compiler": {
    "name": "solc",
    "version": "0.8.19+commit.7dd6d404.Emscripten.clang"
  },
  "schemaVersion": "3.4.13",
  "updatedAt": "2023-04-13T04:45:07.500Z",
  "networkType": "ethereum",
  "devdoc": {
    "kind": "dev",
    "methods": {},
    "version": 1
  },
  "userdoc": {
    "kind": "user",
    "methods": {},
    "version": 1
  }
}